{
  "_format": "hh-sol-artifact-1",
  "contractName": "CryptoDevs",
  "sourceName": "contracts/CryptoDevs.sol",
  "abi": [
    {
      "inputs": [
        {
          "internalType": "string",
          "name": "baseURI",
          "type": "string"
        },
        {
          "internalType": "address",
          "name": "whitelistContract",
          "type": "address"
        }
      ],
      "stateMutability": "nonpayable",
      "type": "constructor"
    },
    {
      "anonymous": false,
      "inputs": [
        {
          "indexed": true,
          "internalType": "address",
          "name": "owner",
          "type": "address"
        },
        {
          "indexed": true,
          "internalType": "address",
          "name": "approved",
          "type": "address"
        },
        {
          "indexed": true,
          "internalType": "uint256",
          "name": "tokenId",
          "type": "uint256"
        }
      ],
      "name": "Approval",
      "type": "event"
    },
    {
      "anonymous": false,
      "inputs": [
        {
          "indexed": true,
          "internalType": "address",
          "name": "owner",
          "type": "address"
        },
        {
          "indexed": true,
          "internalType": "address",
          "name": "operator",
          "type": "address"
        },
        {
          "indexed": false,
          "internalType": "bool",
          "name": "approved",
          "type": "bool"
        }
      ],
      "name": "ApprovalForAll",
      "type": "event"
    },
    {
      "anonymous": false,
      "inputs": [
        {
          "indexed": true,
          "internalType": "address",
          "name": "previousOwner",
          "type": "address"
        },
        {
          "indexed": true,
          "internalType": "address",
          "name": "newOwner",
          "type": "address"
        }
      ],
      "name": "OwnershipTransferred",
      "type": "event"
    },
    {
      "anonymous": false,
      "inputs": [
        {
          "indexed": true,
          "internalType": "address",
          "name": "from",
          "type": "address"
        },
        {
          "indexed": true,
          "internalType": "address",
          "name": "to",
          "type": "address"
        },
        {
          "indexed": true,
          "internalType": "uint256",
          "name": "tokenId",
          "type": "uint256"
        }
      ],
      "name": "Transfer",
      "type": "event"
    },
    {
      "stateMutability": "payable",
      "type": "fallback"
    },
    {
      "inputs": [],
      "name": "_paused",
      "outputs": [
        {
          "internalType": "bool",
          "name": "",
          "type": "bool"
        }
      ],
      "stateMutability": "view",
      "type": "function"
    },
    {
      "inputs": [],
      "name": "_price",
      "outputs": [
        {
          "internalType": "uint256",
          "name": "",
          "type": "uint256"
        }
      ],
      "stateMutability": "view",
      "type": "function"
    },
    {
      "inputs": [
        {
          "internalType": "address",
          "name": "to",
          "type": "address"
        },
        {
          "internalType": "uint256",
          "name": "tokenId",
          "type": "uint256"
        }
      ],
      "name": "approve",
      "outputs": [],
      "stateMutability": "nonpayable",
      "type": "function"
    },
    {
      "inputs": [
        {
          "internalType": "address",
          "name": "owner",
          "type": "address"
        }
      ],
      "name": "balanceOf",
      "outputs": [
        {
          "internalType": "uint256",
          "name": "",
          "type": "uint256"
        }
      ],
      "stateMutability": "view",
      "type": "function"
    },
    {
      "inputs": [
        {
          "internalType": "uint256",
          "name": "tokenId",
          "type": "uint256"
        }
      ],
      "name": "getApproved",
      "outputs": [
        {
          "internalType": "address",
          "name": "",
          "type": "address"
        }
      ],
      "stateMutability": "view",
      "type": "function"
    },
    {
      "inputs": [
        {
          "internalType": "address",
          "name": "owner",
          "type": "address"
        },
        {
          "internalType": "address",
          "name": "operator",
          "type": "address"
        }
      ],
      "name": "isApprovedForAll",
      "outputs": [
        {
          "internalType": "bool",
          "name": "",
          "type": "bool"
        }
      ],
      "stateMutability": "view",
      "type": "function"
    },
    {
      "inputs": [],
      "name": "maxTokenIds",
      "outputs": [
        {
          "internalType": "uint256",
          "name": "",
          "type": "uint256"
        }
      ],
      "stateMutability": "view",
      "type": "function"
    },
    {
      "inputs": [],
      "name": "mint",
      "outputs": [],
      "stateMutability": "payable",
      "type": "function"
    },
    {
      "inputs": [],
      "name": "name",
      "outputs": [
        {
          "internalType": "string",
          "name": "",
          "type": "string"
        }
      ],
      "stateMutability": "view",
      "type": "function"
    },
    {
      "inputs": [],
      "name": "owner",
      "outputs": [
        {
          "internalType": "address",
          "name": "",
          "type": "address"
        }
      ],
      "stateMutability": "view",
      "type": "function"
    },
    {
      "inputs": [
        {
          "internalType": "uint256",
          "name": "tokenId",
          "type": "uint256"
        }
      ],
      "name": "ownerOf",
      "outputs": [
        {
          "internalType": "address",
          "name": "",
          "type": "address"
        }
      ],
      "stateMutability": "view",
      "type": "function"
    },
    {
      "inputs": [],
      "name": "presaleEnded",
      "outputs": [
        {
          "internalType": "uint256",
          "name": "",
          "type": "uint256"
        }
      ],
      "stateMutability": "view",
      "type": "function"
    },
    {
      "inputs": [],
      "name": "presaleStarted",
      "outputs": [
        {
          "internalType": "bool",
          "name": "",
          "type": "bool"
        }
      ],
      "stateMutability": "view",
      "type": "function"
    },
    {
      "inputs": [],
      "name": "renounceOwnership",
      "outputs": [],
      "stateMutability": "nonpayable",
      "type": "function"
    },
    {
      "inputs": [
        {
          "internalType": "address",
          "name": "from",
          "type": "address"
        },
        {
          "internalType": "address",
          "name": "to",
          "type": "address"
        },
        {
          "internalType": "uint256",
          "name": "tokenId",
          "type": "uint256"
        }
      ],
      "name": "safeTransferFrom",
      "outputs": [],
      "stateMutability": "nonpayable",
      "type": "function"
    },
    {
      "inputs": [
        {
          "internalType": "address",
          "name": "from",
          "type": "address"
        },
        {
          "internalType": "address",
          "name": "to",
          "type": "address"
        },
        {
          "internalType": "uint256",
          "name": "tokenId",
          "type": "uint256"
        },
        {
          "internalType": "bytes",
          "name": "_data",
          "type": "bytes"
        }
      ],
      "name": "safeTransferFrom",
      "outputs": [],
      "stateMutability": "nonpayable",
      "type": "function"
    },
    {
      "inputs": [
        {
          "internalType": "address",
          "name": "operator",
          "type": "address"
        },
        {
          "internalType": "bool",
          "name": "approved",
          "type": "bool"
        }
      ],
      "name": "setApprovalForAll",
      "outputs": [],
      "stateMutability": "nonpayable",
      "type": "function"
    },
    {
      "inputs": [
        {
          "internalType": "bool",
          "name": "val",
          "type": "bool"
        }
      ],
      "name": "setPaused",
      "outputs": [],
      "stateMutability": "nonpayable",
      "type": "function"
    },
    {
      "inputs": [],
      "name": "startPresale",
      "outputs": [],
      "stateMutability": "nonpayable",
      "type": "function"
    },
    {
      "inputs": [],
      "name": "startPresaleMint",
      "outputs": [],
      "stateMutability": "payable",
      "type": "function"
    },
    {
      "inputs": [
        {
          "internalType": "bytes4",
          "name": "interfaceId",
          "type": "bytes4"
        }
      ],
      "name": "supportsInterface",
      "outputs": [
        {
          "internalType": "bool",
          "name": "",
          "type": "bool"
        }
      ],
      "stateMutability": "view",
      "type": "function"
    },
    {
      "inputs": [],
      "name": "symbol",
      "outputs": [
        {
          "internalType": "string",
          "name": "",
          "type": "string"
        }
      ],
      "stateMutability": "view",
      "type": "function"
    },
    {
      "inputs": [
        {
          "internalType": "uint256",
          "name": "index",
          "type": "uint256"
        }
      ],
      "name": "tokenByIndex",
      "outputs": [
        {
          "internalType": "uint256",
          "name": "",
          "type": "uint256"
        }
      ],
      "stateMutability": "view",
      "type": "function"
    },
    {
      "inputs": [],
      "name": "tokenIds",
      "outputs": [
        {
          "internalType": "uint256",
          "name": "",
          "type": "uint256"
        }
      ],
      "stateMutability": "view",
      "type": "function"
    },
    {
      "inputs": [
        {
          "internalType": "address",
          "name": "owner",
          "type": "address"
        },
        {
          "internalType": "uint256",
          "name": "index",
          "type": "uint256"
        }
      ],
      "name": "tokenOfOwnerByIndex",
      "outputs": [
        {
          "internalType": "uint256",
          "name": "",
          "type": "uint256"
        }
      ],
      "stateMutability": "view",
      "type": "function"
    },
    {
      "inputs": [
        {
          "internalType": "uint256",
          "name": "tokenId",
          "type": "uint256"
        }
      ],
      "name": "tokenURI",
      "outputs": [
        {
          "internalType": "string",
          "name": "",
          "type": "string"
        }
      ],
      "stateMutability": "view",
      "type": "function"
    },
    {
      "inputs": [],
      "name": "totalSupply",
      "outputs": [
        {
          "internalType": "uint256",
          "name": "",
          "type": "uint256"
        }
      ],
      "stateMutability": "view",
      "type": "function"
    },
    {
      "inputs": [
        {
          "internalType": "address",
          "name": "from",
          "type": "address"
        },
        {
          "internalType": "address",
          "name": "to",
          "type": "address"
        },
        {
          "internalType": "uint256",
          "name": "tokenId",
          "type": "uint256"
        }
      ],
      "name": "transferFrom",
      "outputs": [],
      "stateMutability": "nonpayable",
      "type": "function"
    },
    {
      "inputs": [
        {
          "internalType": "address",
          "name": "newOwner",
          "type": "address"
        }
      ],
      "name": "transferOwnership",
      "outputs": [],
      "stateMutability": "nonpayable",
      "type": "function"
    },
    {
      "inputs": [],
      "name": "withdraw",
      "outputs": [],
      "stateMutability": "nonpayable",
      "type": "function"
    },
    {
      "stateMutability": "payable",
      "type": "receive"
    }
  ],
  "bytecode": "0x6080604052662386f26fc10000600c556014600e553480156200002157600080fd5b506040516200461438038062004614833981810160405281019062000047919062000370565b6040518060400160405280600b81526020017f43727970746f20446576730000000000000000000000000000000000000000008152506040518060400160405280600281526020017f43440000000000000000000000000000000000000000000000000000000000008152508160009080519060200190620000cb92919062000237565b508060019080519060200190620000e492919062000237565b50505062000107620000fb6200016960201b60201c565b6200017160201b60201c565b81600b90805190602001906200011f92919062000237565b5080601060006101000a81548173ffffffffffffffffffffffffffffffffffffffff021916908373ffffffffffffffffffffffffffffffffffffffff160217905550505062000588565b600033905090565b6000600a60009054906101000a900473ffffffffffffffffffffffffffffffffffffffff16905081600a60006101000a81548173ffffffffffffffffffffffffffffffffffffffff021916908373ffffffffffffffffffffffffffffffffffffffff1602179055508173ffffffffffffffffffffffffffffffffffffffff168173ffffffffffffffffffffffffffffffffffffffff167f8be0079c531659141344cd1fd0a4f28419497f9722a3daafe3b4186f6b6457e060405160405180910390a35050565b828054620002459062000493565b90600052602060002090601f016020900481019282620002695760008555620002b5565b82601f106200028457805160ff1916838001178555620002b5565b82800160010185558215620002b5579182015b82811115620002b457825182559160200191906001019062000297565b5b509050620002c49190620002c8565b5090565b5b80821115620002e3576000816000905550600101620002c9565b5090565b6000620002fe620002f884620003f3565b620003ca565b9050828152602081018484840111156200031757600080fd5b620003248482856200045d565b509392505050565b6000815190506200033d816200056e565b92915050565b600082601f8301126200035557600080fd5b815162000367848260208601620002e7565b91505092915050565b600080604083850312156200038457600080fd5b600083015167ffffffffffffffff8111156200039f57600080fd5b620003ad8582860162000343565b9250506020620003c0858286016200032c565b9150509250929050565b6000620003d6620003e9565b9050620003e48282620004c9565b919050565b6000604051905090565b600067ffffffffffffffff8211156200041157620004106200052e565b5b6200041c826200055d565b9050602081019050919050565b600062000436826200043d565b9050919050565b600073ffffffffffffffffffffffffffffffffffffffff82169050919050565b60005b838110156200047d57808201518184015260208101905062000460565b838111156200048d576000848401525b50505050565b60006002820490506001821680620004ac57607f821691505b60208210811415620004c357620004c2620004ff565b5b50919050565b620004d4826200055d565b810181811067ffffffffffffffff82111715620004f657620004f56200052e565b5b80604052505050565b7f4e487b7100000000000000000000000000000000000000000000000000000000600052602260045260246000fd5b7f4e487b7100000000000000000000000000000000000000000000000000000000600052604160045260246000fd5b6000601f19601f8301169050919050565b620005798162000429565b81146200058557600080fd5b50565b61407c80620005986000396000f3fe6080604052600436106101d15760003560e01c80634f6ccce7116100f75780638da5cb5b11610095578063c87b56dd11610064578063c87b56dd1461061a578063e580b2b014610657578063e985e9c514610682578063f2fde38b146106bf576101d8565b80638da5cb5b1461057257806395d89b411461059d578063a22cb465146105c8578063b88d4fde146105f1576101d8565b80636a23d7a4116100d15780636a23d7a4146104e957806370a08231146104f3578063714cff5614610530578063715018a61461055b576101d8565b80634f6ccce7146104445780635f769621146104815780636352211e146104ac576101d8565b806316c38b3c1161016f57806323b872dd1161013e57806323b872dd1461039e5780632f745c59146103c75780633ccfd60b1461040457806342842e0e1461041b576101d8565b806316c38b3c146102f457806316c61ccc1461031d57806318160ddd14610348578063235b6ea114610373576101d8565b806306fdde03116101ab57806306fdde0314610259578063081812fc14610284578063095ea7b3146102c15780631249c58b146102ea576101d8565b806301ffc9a7146101da57806304549d6f1461021757806304c98b2b14610242576101d8565b366101d857005b005b3480156101e657600080fd5b5061020160048036038101906101fc9190612cfc565b6106e8565b60405161020e9190613275565b60405180910390f35b34801561022357600080fd5b5061022c610762565b6040516102399190613275565b60405180910390f35b34801561024e57600080fd5b50610257610775565b005b34801561026557600080fd5b5061026e610822565b60405161027b9190613290565b60405180910390f35b34801561029057600080fd5b506102ab60048036038101906102a69190612d4e565b6108b4565b6040516102b8919061320e565b60405180910390f35b3480156102cd57600080fd5b506102e860048036038101906102e39190612c6e565b610939565b005b6102f2610a51565b005b34801561030057600080fd5b5061031b60048036038101906103169190612caa565b610baf565b005b34801561032957600080fd5b50610332610c48565b60405161033f9190613275565b60405180910390f35b34801561035457600080fd5b5061035d610c5b565b60405161036a91906135d2565b60405180910390f35b34801561037f57600080fd5b50610388610c68565b60405161039591906135d2565b60405180910390f35b3480156103aa57600080fd5b506103c560048036038101906103c09190612b68565b610c6e565b005b3480156103d357600080fd5b506103ee60048036038101906103e99190612c6e565b610cce565b6040516103fb91906135d2565b60405180910390f35b34801561041057600080fd5b50610419610d73565b005b34801561042757600080fd5b50610442600480360381019061043d9190612b68565b610eb1565b005b34801561045057600080fd5b5061046b60048036038101906104669190612d4e565b610ed1565b60405161047891906135d2565b60405180910390f35b34801561048d57600080fd5b50610496610f68565b6040516104a391906135d2565b60405180910390f35b3480156104b857600080fd5b506104d360048036038101906104ce9190612d4e565b610f6e565b6040516104e0919061320e565b60405180910390f35b6104f1611020565b005b3480156104ff57600080fd5b5061051a60048036038101906105159190612b03565b611267565b60405161052791906135d2565b60405180910390f35b34801561053c57600080fd5b5061054561131f565b60405161055291906135d2565b60405180910390f35b34801561056757600080fd5b50610570611325565b005b34801561057e57600080fd5b506105876113ad565b604051610594919061320e565b60405180910390f35b3480156105a957600080fd5b506105b26113d7565b6040516105bf9190613290565b60405180910390f35b3480156105d457600080fd5b506105ef60048036038101906105ea9190612c32565b611469565b005b3480156105fd57600080fd5b5061061860048036038101906106139190612bb7565b61147f565b005b34801561062657600080fd5b50610641600480360381019061063c9190612d4e565b6114e1565b60405161064e9190613290565b60405180910390f35b34801561066357600080fd5b5061066c611588565b60405161067991906135d2565b60405180910390f35b34801561068e57600080fd5b506106a960048036038101906106a49190612b2c565b61158e565b6040516106b69190613275565b60405180910390f35b3480156106cb57600080fd5b506106e660048036038101906106e19190612b03565b611622565b005b60007f780e9d63000000000000000000000000000000000000000000000000000000007bffffffffffffffffffffffffffffffffffffffffffffffffffffffff1916827bffffffffffffffffffffffffffffffffffffffffffffffffffffffff1916148061075b575061075a8261171a565b5b9050919050565b601060149054906101000a900460ff1681565b61077d6117fc565b73ffffffffffffffffffffffffffffffffffffffff1661079b6113ad565b73ffffffffffffffffffffffffffffffffffffffff16146107f1576040517f08c379a00000000000000000000000000000000000000000000000000000000081526004016107e890613492565b60405180910390fd5b6001601060146101000a81548160ff02191690831515021790555061012c4261081a9190613691565b601181905550565b60606000805461083190613802565b80601f016020809104026020016040519081016040528092919081815260200182805461085d90613802565b80156108aa5780601f1061087f576101008083540402835291602001916108aa565b820191906000526020600020905b81548152906001019060200180831161088d57829003601f168201915b5050505050905090565b60006108bf82611804565b6108fe576040517f08c379a00000000000000000000000000000000000000000000000000000000081526004016108f590613472565b60405180910390fd5b6004600083815260200190815260200160002060009054906101000a900473ffffffffffffffffffffffffffffffffffffffff169050919050565b600061094482610f6e565b90508073ffffffffffffffffffffffffffffffffffffffff168373ffffffffffffffffffffffffffffffffffffffff1614156109b5576040517f08c379a00000000000000000000000000000000000000000000000000000000081526004016109ac90613532565b60405180910390fd5b8073ffffffffffffffffffffffffffffffffffffffff166109d46117fc565b73ffffffffffffffffffffffffffffffffffffffff161480610a035750610a02816109fd6117fc565b61158e565b5b610a42576040517f08c379a0000000000000000000000000000000000000000000000000000000008152600401610a39906133d2565b60405180910390fd5b610a4c8383611870565b505050565b600d60009054906101000a900460ff1615610aa1576040517f08c379a0000000000000000000000000000000000000000000000000000000008152600401610a9890613512565b60405180910390fd5b601060149054906101000a900460ff168015610abf57506011544210155b610afe576040517f08c379a0000000000000000000000000000000000000000000000000000000008152600401610af5906135b2565b60405180910390fd5b600e54600f5410610b44576040517f08c379a0000000000000000000000000000000000000000000000000000000008152600401610b3b90613312565b60405180910390fd5b600c54341015610b89576040517f08c379a0000000000000000000000000000000000000000000000000000000008152600401610b8090613552565b60405180910390fd5b600f6000815480929190610b9c90613865565b9190505550610bad33600f54611929565b565b610bb76117fc565b73ffffffffffffffffffffffffffffffffffffffff16610bd56113ad565b73ffffffffffffffffffffffffffffffffffffffff1614610c2b576040517f08c379a0000000000000000000000000000000000000000000000000000000008152600401610c2290613492565b60405180910390fd5b80600d60006101000a81548160ff02191690831515021790555050565b600d60009054906101000a900460ff1681565b6000600880549050905090565b600c5481565b610c7f610c796117fc565b82611947565b610cbe576040517f08c379a0000000000000000000000000000000000000000000000000000000008152600401610cb590613572565b60405180910390fd5b610cc9838383611a25565b505050565b6000610cd983611267565b8210610d1a576040517f08c379a0000000000000000000000000000000000000000000000000000000008152600401610d11906132b2565b60405180910390fd5b600660008473ffffffffffffffffffffffffffffffffffffffff1673ffffffffffffffffffffffffffffffffffffffff168152602001908152602001600020600083815260200190815260200160002054905092915050565b610d7b6117fc565b73ffffffffffffffffffffffffffffffffffffffff16610d996113ad565b73ffffffffffffffffffffffffffffffffffffffff1614610def576040517f08c379a0000000000000000000000000000000000000000000000000000000008152600401610de690613492565b60405180910390fd5b6000610df96113ad565b9050600047905060008273ffffffffffffffffffffffffffffffffffffffff1682604051610e26906131f9565b60006040518083038185875af1925050503d8060008114610e63576040519150601f19603f3d011682016040523d82523d6000602084013e610e68565b606091505b5050905080610eac576040517f08c379a0000000000000000000000000000000000000000000000000000000008152600401610ea3906134b2565b60405180910390fd5b505050565b610ecc8383836040518060200160405280600081525061147f565b505050565b6000610edb610c5b565b8210610f1c576040517f08c379a0000000000000000000000000000000000000000000000000000000008152600401610f1390613592565b60405180910390fd5b60088281548110610f56577f4e487b7100000000000000000000000000000000000000000000000000000000600052603260045260246000fd5b90600052602060002001549050919050565b600e5481565b6000806002600084815260200190815260200160002060009054906101000a900473ffffffffffffffffffffffffffffffffffffffff169050600073ffffffffffffffffffffffffffffffffffffffff168173ffffffffffffffffffffffffffffffffffffffff161415611017576040517f08c379a000000000000000000000000000000000000000000000000000000000815260040161100e90613412565b60405180910390fd5b80915050919050565b600d60009054906101000a900460ff1615611070576040517f08c379a000000000000000000000000000000000000000000000000000000000815260040161106790613512565b60405180910390fd5b601060149054906101000a900460ff16801561108d575060115442105b6110cc576040517f08c379a00000000000000000000000000000000000000000000000000000000081526004016110c390613352565b60405180910390fd5b601060009054906101000a900473ffffffffffffffffffffffffffffffffffffffff1673ffffffffffffffffffffffffffffffffffffffff166306c933d8336040518263ffffffff1660e01b8152600401611127919061320e565b60206040518083038186803b15801561113f57600080fd5b505afa158015611153573d6000803e3d6000fd5b505050506040513d601f19601f820116820180604052508101906111779190612cd3565b6111b6576040517f08c379a00000000000000000000000000000000000000000000000000000000081526004016111ad90613452565b60405180910390fd5b600e54600f54106111fc576040517f08c379a00000000000000000000000000000000000000000000000000000000081526004016111f390613312565b60405180910390fd5b600c54341015611241576040517f08c379a000000000000000000000000000000000000000000000000000000000815260040161123890613552565b60405180910390fd5b600f600081548092919061125490613865565b919050555061126533600f54611929565b565b60008073ffffffffffffffffffffffffffffffffffffffff168273ffffffffffffffffffffffffffffffffffffffff1614156112d8576040517f08c379a00000000000000000000000000000000000000000000000000000000081526004016112cf906133f2565b60405180910390fd5b600360008373ffffffffffffffffffffffffffffffffffffffff1673ffffffffffffffffffffffffffffffffffffffff168152602001908152602001600020549050919050565b600f5481565b61132d6117fc565b73ffffffffffffffffffffffffffffffffffffffff1661134b6113ad565b73ffffffffffffffffffffffffffffffffffffffff16146113a1576040517f08c379a000000000000000000000000000000000000000000000000000000000815260040161139890613492565b60405180910390fd5b6113ab6000611c81565b565b6000600a60009054906101000a900473ffffffffffffffffffffffffffffffffffffffff16905090565b6060600180546113e690613802565b80601f016020809104026020016040519081016040528092919081815260200182805461141290613802565b801561145f5780601f106114345761010080835404028352916020019161145f565b820191906000526020600020905b81548152906001019060200180831161144257829003601f168201915b5050505050905090565b61147b6114746117fc565b8383611d47565b5050565b61149061148a6117fc565b83611947565b6114cf576040517f08c379a00000000000000000000000000000000000000000000000000000000081526004016114c690613572565b60405180910390fd5b6114db84848484611eb4565b50505050565b60606114ec82611804565b61152b576040517f08c379a0000000000000000000000000000000000000000000000000000000008152600401611522906134f2565b60405180910390fd5b6000611535611f10565b905060008151116115555760405180602001604052806000815250611580565b8061155f84611fa2565b6040516020016115709291906131d5565b6040516020818303038152906040525b915050919050565b60115481565b6000600560008473ffffffffffffffffffffffffffffffffffffffff1673ffffffffffffffffffffffffffffffffffffffff16815260200190815260200160002060008373ffffffffffffffffffffffffffffffffffffffff1673ffffffffffffffffffffffffffffffffffffffff16815260200190815260200160002060009054906101000a900460ff16905092915050565b61162a6117fc565b73ffffffffffffffffffffffffffffffffffffffff166116486113ad565b73ffffffffffffffffffffffffffffffffffffffff161461169e576040517f08c379a000000000000000000000000000000000000000000000000000000000815260040161169590613492565b60405180910390fd5b600073ffffffffffffffffffffffffffffffffffffffff168173ffffffffffffffffffffffffffffffffffffffff16141561170e576040517f08c379a0000000000000000000000000000000000000000000000000000000008152600401611705906132f2565b60405180910390fd5b61171781611c81565b50565b60007f80ac58cd000000000000000000000000000000000000000000000000000000007bffffffffffffffffffffffffffffffffffffffffffffffffffffffff1916827bffffffffffffffffffffffffffffffffffffffffffffffffffffffff191614806117e557507f5b5e139f000000000000000000000000000000000000000000000000000000007bffffffffffffffffffffffffffffffffffffffffffffffffffffffff1916827bffffffffffffffffffffffffffffffffffffffffffffffffffffffff1916145b806117f557506117f48261214f565b5b9050919050565b600033905090565b60008073ffffffffffffffffffffffffffffffffffffffff166002600084815260200190815260200160002060009054906101000a900473ffffffffffffffffffffffffffffffffffffffff1673ffffffffffffffffffffffffffffffffffffffff1614159050919050565b816004600083815260200190815260200160002060006101000a81548173ffffffffffffffffffffffffffffffffffffffff021916908373ffffffffffffffffffffffffffffffffffffffff160217905550808273ffffffffffffffffffffffffffffffffffffffff166118e383610f6e565b73ffffffffffffffffffffffffffffffffffffffff167f8c5be1e5ebec7d5bd14f71427d1e84f3dd0314c0f7b2291e5b200ac8c7c3b92560405160405180910390a45050565b6119438282604051806020016040528060008152506121b9565b5050565b600061195282611804565b611991576040517f08c379a0000000000000000000000000000000000000000000000000000000008152600401611988906133b2565b60405180910390fd5b600061199c83610f6e565b90508073ffffffffffffffffffffffffffffffffffffffff168473ffffffffffffffffffffffffffffffffffffffff161480611a0b57508373ffffffffffffffffffffffffffffffffffffffff166119f3846108b4565b73ffffffffffffffffffffffffffffffffffffffff16145b80611a1c5750611a1b818561158e565b5b91505092915050565b8273ffffffffffffffffffffffffffffffffffffffff16611a4582610f6e565b73ffffffffffffffffffffffffffffffffffffffff1614611a9b576040517f08c379a0000000000000000000000000000000000000000000000000000000008152600401611a92906134d2565b60405180910390fd5b600073ffffffffffffffffffffffffffffffffffffffff168273ffffffffffffffffffffffffffffffffffffffff161415611b0b576040517f08c379a0000000000000000000000000000000000000000000000000000000008152600401611b0290613372565b60405180910390fd5b611b16838383612214565b611b21600082611870565b6001600360008573ffffffffffffffffffffffffffffffffffffffff1673ffffffffffffffffffffffffffffffffffffffff1681526020019081526020016000206000828254611b719190613718565b925050819055506001600360008473ffffffffffffffffffffffffffffffffffffffff1673ffffffffffffffffffffffffffffffffffffffff1681526020019081526020016000206000828254611bc89190613691565b92505081905550816002600083815260200190815260200160002060006101000a81548173ffffffffffffffffffffffffffffffffffffffff021916908373ffffffffffffffffffffffffffffffffffffffff160217905550808273ffffffffffffffffffffffffffffffffffffffff168473ffffffffffffffffffffffffffffffffffffffff167fddf252ad1be2c89b69c2b068fc378daa952ba7f163c4a11628f55a4df523b3ef60405160405180910390a4505050565b6000600a60009054906101000a900473ffffffffffffffffffffffffffffffffffffffff16905081600a60006101000a81548173ffffffffffffffffffffffffffffffffffffffff021916908373ffffffffffffffffffffffffffffffffffffffff1602179055508173ffffffffffffffffffffffffffffffffffffffff168173ffffffffffffffffffffffffffffffffffffffff167f8be0079c531659141344cd1fd0a4f28419497f9722a3daafe3b4186f6b6457e060405160405180910390a35050565b8173ffffffffffffffffffffffffffffffffffffffff168373ffffffffffffffffffffffffffffffffffffffff161415611db6576040517f08c379a0000000000000000000000000000000000000000000000000000000008152600401611dad90613392565b60405180910390fd5b80600560008573ffffffffffffffffffffffffffffffffffffffff1673ffffffffffffffffffffffffffffffffffffffff16815260200190815260200160002060008473ffffffffffffffffffffffffffffffffffffffff1673ffffffffffffffffffffffffffffffffffffffff16815260200190815260200160002060006101000a81548160ff0219169083151502179055508173ffffffffffffffffffffffffffffffffffffffff168373ffffffffffffffffffffffffffffffffffffffff167f17307eab39ab6107e8899845ad3d59bd9653f200f220920489ca2b5937696c3183604051611ea79190613275565b60405180910390a3505050565b611ebf848484611a25565b611ecb84848484612328565b611f0a576040517f08c379a0000000000000000000000000000000000000000000000000000000008152600401611f01906132d2565b60405180910390fd5b50505050565b6060600b8054611f1f90613802565b80601f0160208091040260200160405190810160405280929190818152602001828054611f4b90613802565b8015611f985780601f10611f6d57610100808354040283529160200191611f98565b820191906000526020600020905b815481529060010190602001808311611f7b57829003601f168201915b5050505050905090565b60606000821415611fea576040518060400160405280600181526020017f3000000000000000000000000000000000000000000000000000000000000000815250905061214a565b600082905060005b6000821461201c57808061200590613865565b915050600a8261201591906136e7565b9150611ff2565b60008167ffffffffffffffff81111561205e577f4e487b7100000000000000000000000000000000000000000000000000000000600052604160045260246000fd5b6040519080825280601f01601f1916602001820160405280156120905781602001600182028036833780820191505090505b5090505b60008514612143576001826120a99190613718565b9150600a856120b891906138ae565b60306120c49190613691565b60f81b818381518110612100577f4e487b7100000000000000000000000000000000000000000000000000000000600052603260045260246000fd5b60200101907effffffffffffffffffffffffffffffffffffffffffffffffffffffffffffff1916908160001a905350600a8561213c91906136e7565b9450612094565b8093505050505b919050565b60007f01ffc9a7000000000000000000000000000000000000000000000000000000007bffffffffffffffffffffffffffffffffffffffffffffffffffffffff1916827bffffffffffffffffffffffffffffffffffffffffffffffffffffffff1916149050919050565b6121c383836124bf565b6121d06000848484612328565b61220f576040517f08c379a0000000000000000000000000000000000000000000000000000000008152600401612206906132d2565b60405180910390fd5b505050565b61221f83838361268d565b600073ffffffffffffffffffffffffffffffffffffffff168373ffffffffffffffffffffffffffffffffffffffff1614156122625761225d81612692565b6122a1565b8173ffffffffffffffffffffffffffffffffffffffff168373ffffffffffffffffffffffffffffffffffffffff16146122a05761229f83826126db565b5b5b600073ffffffffffffffffffffffffffffffffffffffff168273ffffffffffffffffffffffffffffffffffffffff1614156122e4576122df81612848565b612323565b8273ffffffffffffffffffffffffffffffffffffffff168273ffffffffffffffffffffffffffffffffffffffff161461232257612321828261298b565b5b5b505050565b60006123498473ffffffffffffffffffffffffffffffffffffffff16612a0a565b156124b2578373ffffffffffffffffffffffffffffffffffffffff1663150b7a026123726117fc565b8786866040518563ffffffff1660e01b81526004016123949493929190613229565b602060405180830381600087803b1580156123ae57600080fd5b505af19250505080156123df57506040513d601f19601f820116820180604052508101906123dc9190612d25565b60015b612462573d806000811461240f576040519150601f19603f3d011682016040523d82523d6000602084013e612414565b606091505b5060008151141561245a576040517f08c379a0000000000000000000000000000000000000000000000000000000008152600401612451906132d2565b60405180910390fd5b805181602001fd5b63150b7a0260e01b7bffffffffffffffffffffffffffffffffffffffffffffffffffffffff1916817bffffffffffffffffffffffffffffffffffffffffffffffffffffffff1916149150506124b7565b600190505b949350505050565b600073ffffffffffffffffffffffffffffffffffffffff168273ffffffffffffffffffffffffffffffffffffffff16141561252f576040517f08c379a000000000000000000000000000000000000000000000000000000000815260040161252690613432565b60405180910390fd5b61253881611804565b15612578576040517f08c379a000000000000000000000000000000000000000000000000000000000815260040161256f90613332565b60405180910390fd5b61258460008383612214565b6001600360008473ffffffffffffffffffffffffffffffffffffffff1673ffffffffffffffffffffffffffffffffffffffff16815260200190815260200160002060008282546125d49190613691565b92505081905550816002600083815260200190815260200160002060006101000a81548173ffffffffffffffffffffffffffffffffffffffff021916908373ffffffffffffffffffffffffffffffffffffffff160217905550808273ffffffffffffffffffffffffffffffffffffffff16600073ffffffffffffffffffffffffffffffffffffffff167fddf252ad1be2c89b69c2b068fc378daa952ba7f163c4a11628f55a4df523b3ef60405160405180910390a45050565b505050565b6008805490506009600083815260200190815260200160002081905550600881908060018154018082558091505060019003906000526020600020016000909190919091505550565b600060016126e884611267565b6126f29190613718565b90506000600760008481526020019081526020016000205490508181146127d7576000600660008673ffffffffffffffffffffffffffffffffffffffff1673ffffffffffffffffffffffffffffffffffffffff168152602001908152602001600020600084815260200190815260200160002054905080600660008773ffffffffffffffffffffffffffffffffffffffff1673ffffffffffffffffffffffffffffffffffffffff168152602001908152602001600020600084815260200190815260200160002081905550816007600083815260200190815260200160002081905550505b6007600084815260200190815260200160002060009055600660008573ffffffffffffffffffffffffffffffffffffffff1673ffffffffffffffffffffffffffffffffffffffff16815260200190815260200160002060008381526020019081526020016000206000905550505050565b6000600160088054905061285c9190613718565b90506000600960008481526020019081526020016000205490506000600883815481106128b2577f4e487b7100000000000000000000000000000000000000000000000000000000600052603260045260246000fd5b9060005260206000200154905080600883815481106128fa577f4e487b7100000000000000000000000000000000000000000000000000000000600052603260045260246000fd5b90600052602060002001819055508160096000838152602001908152602001600020819055506009600085815260200190815260200160002060009055600880548061296f577f4e487b7100000000000000000000000000000000000000000000000000000000600052603160045260246000fd5b6001900381819060005260206000200160009055905550505050565b600061299683611267565b905081600660008573ffffffffffffffffffffffffffffffffffffffff1673ffffffffffffffffffffffffffffffffffffffff168152602001908152602001600020600083815260200190815260200160002081905550806007600084815260200190815260200160002081905550505050565b600080823b905060008111915050919050565b6000612a30612a2b84613612565b6135ed565b905082815260208101848484011115612a4857600080fd5b612a538482856137c0565b509392505050565b600081359050612a6a81613fea565b92915050565b600081359050612a7f81614001565b92915050565b600081519050612a9481614001565b92915050565b600081359050612aa981614018565b92915050565b600081519050612abe81614018565b92915050565b600082601f830112612ad557600080fd5b8135612ae5848260208601612a1d565b91505092915050565b600081359050612afd8161402f565b92915050565b600060208284031215612b1557600080fd5b6000612b2384828501612a5b565b91505092915050565b60008060408385031215612b3f57600080fd5b6000612b4d85828601612a5b565b9250506020612b5e85828601612a5b565b9150509250929050565b600080600060608486031215612b7d57600080fd5b6000612b8b86828701612a5b565b9350506020612b9c86828701612a5b565b9250506040612bad86828701612aee565b9150509250925092565b60008060008060808587031215612bcd57600080fd5b6000612bdb87828801612a5b565b9450506020612bec87828801612a5b565b9350506040612bfd87828801612aee565b925050606085013567ffffffffffffffff811115612c1a57600080fd5b612c2687828801612ac4565b91505092959194509250565b60008060408385031215612c4557600080fd5b6000612c5385828601612a5b565b9250506020612c6485828601612a70565b9150509250929050565b60008060408385031215612c8157600080fd5b6000612c8f85828601612a5b565b9250506020612ca085828601612aee565b9150509250929050565b600060208284031215612cbc57600080fd5b6000612cca84828501612a70565b91505092915050565b600060208284031215612ce557600080fd5b6000612cf384828501612a85565b91505092915050565b600060208284031215612d0e57600080fd5b6000612d1c84828501612a9a565b91505092915050565b600060208284031215612d3757600080fd5b6000612d4584828501612aaf565b91505092915050565b600060208284031215612d6057600080fd5b6000612d6e84828501612aee565b91505092915050565b612d808161374c565b82525050565b612d8f8161375e565b82525050565b6000612da082613643565b612daa8185613659565b9350612dba8185602086016137cf565b612dc38161399b565b840191505092915050565b6000612dd98261364e565b612de38185613675565b9350612df38185602086016137cf565b612dfc8161399b565b840191505092915050565b6000612e128261364e565b612e1c8185613686565b9350612e2c8185602086016137cf565b80840191505092915050565b6000612e45602b83613675565b9150612e50826139ac565b604082019050919050565b6000612e68603283613675565b9150612e73826139fb565b604082019050919050565b6000612e8b602683613675565b9150612e9682613a4a565b604082019050919050565b6000612eae602383613675565b9150612eb982613a99565b604082019050919050565b6000612ed1601c83613675565b9150612edc82613ae8565b602082019050919050565b6000612ef4601683613675565b9150612eff82613b11565b602082019050919050565b6000612f17602483613675565b9150612f2282613b3a565b604082019050919050565b6000612f3a601983613675565b9150612f4582613b89565b602082019050919050565b6000612f5d602c83613675565b9150612f6882613bb2565b604082019050919050565b6000612f80603883613675565b9150612f8b82613c01565b604082019050919050565b6000612fa3602a83613675565b9150612fae82613c50565b604082019050919050565b6000612fc6602983613675565b9150612fd182613c9f565b604082019050919050565b6000612fe9602083613675565b9150612ff482613cee565b602082019050919050565b600061300c601783613675565b915061301782613d17565b602082019050919050565b600061302f602c83613675565b915061303a82613d40565b604082019050919050565b6000613052602083613675565b915061305d82613d8f565b602082019050919050565b6000613075601483613675565b915061308082613db8565b602082019050919050565b6000613098602983613675565b91506130a382613de1565b604082019050919050565b60006130bb602f83613675565b91506130c682613e30565b604082019050919050565b60006130de601983613675565b91506130e982613e7f565b602082019050919050565b6000613101602183613675565b915061310c82613ea8565b604082019050919050565b6000613124601983613675565b915061312f82613ef7565b602082019050919050565b600061314760008361366a565b915061315282613f20565b600082019050919050565b600061316a603183613675565b915061317582613f23565b604082019050919050565b600061318d602c83613675565b915061319882613f72565b604082019050919050565b60006131b0601983613675565b91506131bb82613fc1565b602082019050919050565b6131cf816137b6565b82525050565b60006131e18285612e07565b91506131ed8284612e07565b91508190509392505050565b60006132048261313a565b9150819050919050565b60006020820190506132236000830184612d77565b92915050565b600060808201905061323e6000830187612d77565b61324b6020830186612d77565b61325860408301856131c6565b818103606083015261326a8184612d95565b905095945050505050565b600060208201905061328a6000830184612d86565b92915050565b600060208201905081810360008301526132aa8184612dce565b905092915050565b600060208201905081810360008301526132cb81612e38565b9050919050565b600060208201905081810360008301526132eb81612e5b565b9050919050565b6000602082019050818103600083015261330b81612e7e565b9050919050565b6000602082019050818103600083015261332b81612ea1565b9050919050565b6000602082019050818103600083015261334b81612ec4565b9050919050565b6000602082019050818103600083015261336b81612ee7565b9050919050565b6000602082019050818103600083015261338b81612f0a565b9050919050565b600060208201905081810360008301526133ab81612f2d565b9050919050565b600060208201905081810360008301526133cb81612f50565b9050919050565b600060208201905081810360008301526133eb81612f73565b9050919050565b6000602082019050818103600083015261340b81612f96565b9050919050565b6000602082019050818103600083015261342b81612fb9565b9050919050565b6000602082019050818103600083015261344b81612fdc565b9050919050565b6000602082019050818103600083015261346b81612fff565b9050919050565b6000602082019050818103600083015261348b81613022565b9050919050565b600060208201905081810360008301526134ab81613045565b9050919050565b600060208201905081810360008301526134cb81613068565b9050919050565b600060208201905081810360008301526134eb8161308b565b9050919050565b6000602082019050818103600083015261350b816130ae565b9050919050565b6000602082019050818103600083015261352b816130d1565b9050919050565b6000602082019050818103600083015261354b816130f4565b9050919050565b6000602082019050818103600083015261356b81613117565b9050919050565b6000602082019050818103600083015261358b8161315d565b9050919050565b600060208201905081810360008301526135ab81613180565b9050919050565b600060208201905081810360008301526135cb816131a3565b9050919050565b60006020820190506135e760008301846131c6565b92915050565b60006135f7613608565b90506136038282613834565b919050565b6000604051905090565b600067ffffffffffffffff82111561362d5761362c61396c565b5b6136368261399b565b9050602081019050919050565b600081519050919050565b600081519050919050565b600082825260208201905092915050565b600081905092915050565b600082825260208201905092915050565b600081905092915050565b600061369c826137b6565b91506136a7836137b6565b9250827fffffffffffffffffffffffffffffffffffffffffffffffffffffffffffffffff038211156136dc576136db6138df565b5b828201905092915050565b60006136f2826137b6565b91506136fd836137b6565b92508261370d5761370c61390e565b5b828204905092915050565b6000613723826137b6565b915061372e836137b6565b925082821015613741576137406138df565b5b828203905092915050565b600061375782613796565b9050919050565b60008115159050919050565b60007fffffffff0000000000000000000000000000000000000000000000000000000082169050919050565b600073ffffffffffffffffffffffffffffffffffffffff82169050919050565b6000819050919050565b82818337600083830152505050565b60005b838110156137ed5780820151818401526020810190506137d2565b838111156137fc576000848401525b50505050565b6000600282049050600182168061381a57607f821691505b6020821081141561382e5761382d61393d565b5b50919050565b61383d8261399b565b810181811067ffffffffffffffff8211171561385c5761385b61396c565b5b80604052505050565b6000613870826137b6565b91507fffffffffffffffffffffffffffffffffffffffffffffffffffffffffffffffff8214156138a3576138a26138df565b5b600182019050919050565b60006138b9826137b6565b91506138c4836137b6565b9250826138d4576138d361390e565b5b828206905092915050565b7f4e487b7100000000000000000000000000000000000000000000000000000000600052601160045260246000fd5b7f4e487b7100000000000000000000000000000000000000000000000000000000600052601260045260246000fd5b7f4e487b7100000000000000000000000000000000000000000000000000000000600052602260045260246000fd5b7f4e487b7100000000000000000000000000000000000000000000000000000000600052604160045260246000fd5b6000601f19601f8301169050919050565b7f455243373231456e756d657261626c653a206f776e657220696e646578206f7560008201527f74206f6620626f756e6473000000000000000000000000000000000000000000602082015250565b7f4552433732313a207472616e7366657220746f206e6f6e20455243373231526560008201527f63656976657220696d706c656d656e7465720000000000000000000000000000602082015250565b7f4f776e61626c653a206e6577206f776e657220697320746865207a65726f206160008201527f6464726573730000000000000000000000000000000000000000000000000000602082015250565b7f4578636565646564206d6178696d756d2043727970746f20446576732073757060008201527f706c790000000000000000000000000000000000000000000000000000000000602082015250565b7f4552433732313a20746f6b656e20616c7265616479206d696e74656400000000600082015250565b7f50726573616c65206973206e6f742072756e6e696e6700000000000000000000600082015250565b7f4552433732313a207472616e7366657220746f20746865207a65726f2061646460008201527f7265737300000000000000000000000000000000000000000000000000000000602082015250565b7f4552433732313a20617070726f766520746f2063616c6c657200000000000000600082015250565b7f4552433732313a206f70657261746f7220717565727920666f72206e6f6e657860008201527f697374656e7420746f6b656e0000000000000000000000000000000000000000602082015250565b7f4552433732313a20617070726f76652063616c6c6572206973206e6f74206f7760008201527f6e6572206e6f7220617070726f76656420666f7220616c6c0000000000000000602082015250565b7f4552433732313a2062616c616e636520717565727920666f7220746865207a6560008201527f726f206164647265737300000000000000000000000000000000000000000000602082015250565b7f4552433732313a206f776e657220717565727920666f72206e6f6e657869737460008201527f656e7420746f6b656e0000000000000000000000000000000000000000000000602082015250565b7f4552433732313a206d696e7420746f20746865207a65726f2061646472657373600082015250565b7f596f7520617265206e6f742077686974656c6973746564000000000000000000600082015250565b7f4552433732313a20617070726f76656420717565727920666f72206e6f6e657860008201527f697374656e7420746f6b656e0000000000000000000000000000000000000000602082015250565b7f4f776e61626c653a2063616c6c6572206973206e6f7420746865206f776e6572600082015250565b7f4661696c656420746f2073656e64206574686572000000000000000000000000600082015250565b7f4552433732313a207472616e73666572206f6620746f6b656e2074686174206960008201527f73206e6f74206f776e0000000000000000000000000000000000000000000000602082015250565b7f4552433732314d657461646174613a2055524920717565727920666f72206e6f60008201527f6e6578697374656e7420746f6b656e0000000000000000000000000000000000602082015250565b7f436f6e74726163742063757272656e746c792070617573656400000000000000600082015250565b7f4552433732313a20617070726f76616c20746f2063757272656e74206f776e6560008201527f7200000000000000000000000000000000000000000000000000000000000000602082015250565b7f45746865722073656e74206973206e6f7420636f727265637400000000000000600082015250565b50565b7f4552433732313a207472616e736665722063616c6c6572206973206e6f74206f60008201527f776e6572206e6f7220617070726f766564000000000000000000000000000000602082015250565b7f455243373231456e756d657261626c653a20676c6f62616c20696e646578206f60008201527f7574206f6620626f756e64730000000000000000000000000000000000000000602082015250565b7f50726573616c6520686173206e6f7420656e6465642079657400000000000000600082015250565b613ff38161374c565b8114613ffe57600080fd5b50565b61400a8161375e565b811461401557600080fd5b50565b6140218161376a565b811461402c57600080fd5b50565b614038816137b6565b811461404357600080fd5b5056fea2646970667358221220d10e3b2c011aeb89fcfb64b6182ec502bb57a1ea124747cc2be0cc376ba5d7ea64736f6c63430008040033",
  "linkReferences": {},
  "deployedLinkReferences": {}
}